:020000040800F2
:100000000050002061060008990500089F050008BF
:10001000A5050008AB050008B105000800000000B8
:10002000000000000000000000000000B70500080C
:10003000C305000800000000CF050008DB0500082C
:10004000A9060008A9060008A9060008A9060008D4
:10005000A9060008A9060008A9060008A9060008C4
:10006000A9060008A9060008A9060008A9060008B4
:10007000A9060008A9060008A9060008A9060008A4
:10008000A9060008A9060008A9060008A906000894
:10009000A9060008A9060008A9060008A906000884
:1000A000A9060008A9060008A9060008A906000874
:1000B000A9060008A9060008A9060008A906000864
:1000C000A9060008A9060008A9060008A906000854
:1000D000A9060008A9060008A9060008A906000844
:1000E000A9060008A9060008A906000800000000EB
:1000F0000000000000000000000000000000000000
:0C01000000000000000000005FF808F1A3
:10010C0010B5054C237833B9044B13B10448AFF345
:10011C0000800123237010BDA4000020000000000B
:10012C004835000808B5034B1BB103490348AFF32E
:10013C00008008BD00000000A80000204835000821
:10014C00034613F8012B002AFBD1181A013870470B
:10015C0080B586B002AF03463960FB711346BB71A4
:10016C00FB799BB25B0099B2BB799BB26422009283
:10017C003A68074800F07AFF0346FB73FB7B002BC1
:10018C0014BF01230023DBB218461037BD4680BDD7
:10019C00C000002080B586B002AF03463960FB7109
:1001AC001346BB71FB799BB25B0099B2BB799BB2D6
:1001BC00642200923A68074801F056F80346FB7334
:1001CC00FB7B002B14BF01230023DBB21846103736
:1001DC00BD4680BDC000002090B5B7B002AF00F0A6
:1001EC0013FB00F045F800F0E1F800F087F800F0A0
:1001FC00B3F81A4800F053FA184800F087FA03468F
:10020C0087F8CF3097F8CF30002B01D1144A00E09B
:10021C00144A124BB3F906301C46104BB3F90A3092
:10022C0019460E4BB3F90E30381D0193009123463D
:10023C000D4902F009FD034687F8CE303B1D1846E8
:10024C00FFF77EFF03469AB2391D6423074802F07C
:10025C006BFAC82000F03AFBCEE700BF000000208C
:10026C00603500086435000868350008140100206A
:10027C0080B590B000AF07F1180328220021184672
:10028C0002F0DAFC3B1D00221A605A609A60DA60B8
:10029C001A610123BB614FF48033FB6100233B6285
:1002AC000123BB6202237B634FF48033BB634FF4A7
:1002BC00E013FB6307F11803184601F0C7FD034672
:1002CC00002B01D000F0A0F80F237B600223BB6051
:1002DC000023FB604FF480633B6100237B613B1D7B
:1002EC000221184602F034F80346002B01D000F02E
:1002FC008BF800BF4037BD4680BD000080B500AF15
:10030C00124B134A1A60114B124A5A600F4B0022BF
:10031C009A600E4B0022DA600C4B4FF480421A614B
:10032C000A4B00225A61094B00229A61074B0022AA
:10033C00DA61064B00221A62044800F053FD0346B2
:10034C00002B01D000F060F800BF80BDC000002081
:10035C0000540040A086010080B500AF114B124A3A
:10036C001A60104B4FF4E1325A600E4B00229A6027
:10037C000C4B0022DA600B4B00221A61094B0C2249
:10038C005A61084B00229A61064B0022DA6105483B
:10039C0002F06CF90346002B01D000F035F800BFD9
:1003AC0080BD00BF140100200038014080B485B02E
:1003BC0000AF144B9B69134A43F020039361114B1C
:1003CC009B6903F02003FB60FB680E4B9B690D4A95
:1003DC0043F0040393610B4B9B6903F00403BB6074
:1003EC00BB68084B9B69074A43F008039361054BB4
:1003FC009B6903F008037B607B6800BF1437BD4624
:10040C0080BC70470010024080B400AF72B600BFD1
:10041C00FEE7000080B485B000AF154B9B69144A11
:10042C0043F001039361124B9B6903F00103BB6022
:10043C00BB680F4BDB690E4A43F08053D3610C4B06
:10044C00DB6903F080537B607B680A4B5B68FB6065
:10045C00FB6823F0E063FB60FB6843F00073FB6018
:10046C00044AFB68536000BF1437BD4680BC70471C
:10047C00001002400000014080B588B000AF7860E9
:10048C0007F1100300221A605A609A60DA607B68E8
:10049C001B68154A934223D1144B9B69134A43F0B2
:1004AC0008039361114B9B6903F00803FB60FB6825
:1004BC00C0233B6112237B610323FB6107F1100313
:1004CC0019460B4800F00AFB084BDB69074A43F45A
:1004DC000013D361054BDB6903F40013BB60BB68ED
:1004EC0000BF2037BD4680BD0054004000100240C4
:1004FC00000C014080B588B000AF786007F11003A4
:10050C0000221A605A609A60DA607B681B681C4A89
:10051C00934231D11B4B9B691A4A43F4804393613C
:10052C00184B9B6903F48043FB60FB68154B9B697C
:10053C00144A43F004039361124B9B6903F00403C8
:10054C00BB60BB684FF400733B6102237B610323E8
:10055C00FB6107F1100319460B4800F0BFFA4FF48A
:10056C0080633B6100237B610023BB6107F11003B7
:10057C001946054800F0B2FA00BF2037BD4680BDD1
:10058C0000380140001002400008014080B400AF68
:10059C00FEE780B400AFFEE780B400AFFEE780B4A6
:1005AC0000AFFEE780B400AFFEE780B400AF00BF41
:1005BC00BD4680BC704780B400AF00BFBD4680BC58
:1005CC00704780B400AF00BFBD4680BC704780B59B
:1005DC0000AF00F05FF900BF80BD000080B586B0B1
:1005EC0000AF7860144A154BD31A7B617B693B6171
:1005FC00134B1B68002B02D1114B124A1A60104B83
:10060C001A687B6813443A699A4207D202F0EAFAF4
:10061C0003460C221A604FF0FF3309E0084B1B68AD
:10062C00FB60074B1A687B681344054A1360FB6830
:10063C0018461837BD4680BD00500020000400004D
:10064C008C010020A801002080B400AF00BFBD4683
:10065C0080BC7047FFF7F8FF0B480C490C4A00238D
:10066C0002E0D458C4500433C4188C42F9D3094A5C
:10067C00094C002301E013600432A242FBD302F0C8
:10068C00B7FAFFF7A9FD704700000020A400002076
:10069C00F8350008A4000020A4010020FEE780B576
:1006AC0084B000AF78607B68F0221A707B682022DF
:1006BC009A707B6801221A710023FB737B680022FD
:1006CC00DA757B681A787B681A767B689A787B680F
:1006DC005A767B681A797B689A767B6803F11702E5
:1006EC0004231E217868FFF733FD03465AB297F9AD
:1006FC000F3013435BB2FB73FB7B002B01D0012348
:10070C0000E0002318461037BD4680BD80B584B08C
:10071C0000AF78600023FB737B680322DA767B687A
:10072C0003F11B0208231E217868FFF733FD0346F3
:10073C005AB297F90F3013435BB2FB737B680022FC
:10074C00DA767B681B7F5AB27B681A727B685A7F99
:10075C007B685A727B6893F908301B011AB27B686C
:10076C005B7A1BB213431AB27B68DA807B689B7F7F
:10077C005AB27B681A737B68DA7F7B685A737B6822
:10078C0093F90C301B011AB27B685B7B1BB21343D1
:10079C001AB27B685A817B6893F820305AB27B6816
:1007AC001A747B6893F821207B685A747B6893F9E0
:1007BC0010301B011AB27B685B7C1BB213431AB25C
:1007CC007B68DA817B6893F8223003F00103D9B29D
:1007DC007A68D37C61F30003D3747B6893F822307E
:1007EC005B08DBB203F00103D9B27A68D37C61F306
:1007FC000003D374FB7B002B01D0012300E000230A
:10080C0018461037BD4680BD80B500AF084B1B683D
:10081C00074A43F010031360032000F02BF90F205C
:10082C0000F008F8FFF7F6FD0023184680BD00BF66
:10083C000020024080B582B000AF7860124B1A687D
:10084C00124B1B7819464FF47A73B3FBF1F3B2FBDE
:10085C00F3F3184600F035F90346002B01D00123C1
:10086C000EE07B680F2B0AD8002279684FF0FF301E
:10087C0000F00BF9064A7B681360002300E00123AB
:10088C0018460837BD4680BD340000203C000020CF
:10089C003800002080B400AF054B1B781A46054B7E
:1008AC001B681344034A136000BFBD4680BC7047ED
:1008BC003C0000209001002080B400AF024B1B686C
:1008CC001846BD4680BC70479001002080B584B0AE
:1008DC0000AF7860FFF7F0FFB8607B68FB60FB68E7
:1008EC00B3F1FF3F05D00A4B1B781A46FB68134443
:1008FC00FB6000BFFFF7E0FF0246BB68D31AFA6843
:10090C009A42F7D800BF00BF1037BD4680BD00BF6C
:10091C003C00002080B485B000AF78607B6803F0A9
:10092C000703FB600C4BDB68BB60BA684FF6FF0338
:10093C001340BB60FB681A02BB68134343F0BF63F0
:10094C0043F40033BB60044ABB68D36000BF143768
:10095C00BD4680BC704700BF00ED00E080B400AF26
:10096C00044BDB681B0A03F007031846BD4680BC2A
:10097C00704700BF00ED00E080B483B000AF0346C9
:10098C003960FB7197F90730002B0ADB3B68DAB250
:10099C000C4997F907301201D2B20B4483F80023AB
:1009AC000AE03B68DAB20849FB7903F00F03043B19
:1009BC001201D2B20B441A7600BF0C37BD4680BC74
:1009CC00704700BF00E100E000ED00E080B489B0AA
:1009DC0000AFF860B9607A60FB6803F00703FB6155
:1009EC00FB69C3F10703042B28BF0423BB61FB691C
:1009FC000433062B02D9FB69033B00E000237B6127
:100A0C004FF0FF32BB6902FA03F3DA43BB681A40BA
:100A1C007B699A404FF0FF317B6901FA03F3D943AC
:100A2C007B680B40134318462437BD4680BC704787
:100A3C0080B582B000AF78607B68013BB3F1807FFA
:100A4C0001D301230FE00A4A7B68013B53600F215D
:100A5C004FF0FF30FFF790FF054B00229A60044BDC
:100A6C0007221A60002318460837BD4680BD00BF18
:100A7C0010E000E080B582B000AF78607868FFF7D6
:100A8C0049FF00BF0837BD4680BD80B586B000AFBA
:100A9C000346B9607A60FB7300237B61FFF75EFF4E
:100AAC0078617A68B9687869FFF790FF024697F920
:100ABC000F3011461846FFF75FFF00BF1837BD46D1
:100ACC0080BD80B582B000AF78607868FFF7B0FF6A
:100ADC00034618460837BD4680BD000080B48BB075
:100AEC0000AF7860396000237B6200233B6269E1D0
:100AFC0001227B6A02FA03F3FB613B681B68FA690B
:100B0C001340BB61BA69FB699A4240F058813B685B
:100B1C005B689A4A93425ED0984A934275D8984A39
:100B2C00934258D0964A93426FD8964A934252D0E9
:100B3C00944A934269D8944A93424CD0924A934235
:100B4C0063D8924A934246D0904A93425DD8122B76
:100B5C002AD8122B59D801A252F823F0E30B000823
:100B6C00BD0B0008CF0B0008110C0008170C000877
:100B7C00170C0008170C0008170C0008170C0008BD
:100B8C00170C0008170C0008170C0008170C0008AD
:100B9C00170C0008170C0008170C0008170C00089D
:100BAC00C50B0008D90B0008794A934213D02CE0EE
:100BBC003B68DB683B6229E03B68DB6804333B62E3
:100BCC0024E03B68DB6808333B621FE03B68DB6872
:100BDC000C333B621AE03B689B68002B02D1042368
:100BEC003B6213E03B689B68012B05D108233B62F9
:100BFC007B68FA691A6109E008233B627B68FA6931
:100C0C005A6103E000233B6200E000BFBB69FF2B8D
:100C1C0001D87B6801E07B6804337B61BB69FF2BE7
:100C2C0002D87B6A9B0002E07B6A083B9B003B611D
:100C3C007B691A680F213B6901FA03F3DB431A4005
:100C4C00396A3B6901FA03F31A437B691A603B6802
:100C5C005B6803F08053002B00F0B1804D4B9B6917
:100C6C004C4A43F0010393614A4B9B6903F0010327
:100C7C00BB60BB68484A7B6A9B08023352F823303E
:100C8C00FB607B6A03F003039B000F2202FA03F361
:100C9C00DB43FA681340FB607B68404A934213D0F5
:100CAC007B683F4A93420DD07B683E4A934207D003
:100CBC007B683D4A934201D1032306E0042304E000
:100CCC00022302E0012300E000237A6A02F003020F
:100CDC0092009340FA681343FB602F497B6A9B0890
:100CEC000233FA6841F823203B685B6803F48013F5
:100CFC00002B06D02D4B9A682C49BB6913438B6093
:100D0C0006E02A4B9A68BB69DB43284913408B6089
:100D1C003B685B6803F40013002B06D0234BDA68A6
:100D2C002249BB691343CB6006E0204BDA68BB69F0
:100D3C00DB431E491340CB603B685B6803F4003314
:100D4C00002B06D0194B5A681849BB6913434B60EA
:100D5C0006E0164B5A68BB69DB43144913404B60E1
:100D6C003B685B6803F48033002B21D00F4B1A686F
:100D7C000E49BB6913430B6021E000BF0000321029
:100D8C000000311000002210000021100000121091
:100D9C00000011100010024000000140000801404A
:100DAC00000C0140001001400014014000040140FF
:100DBC000B4B1A68BB69DB43094913400B607B6A18
:100DCC0001337B623B681A687B6A22FA03F3002BBF
:100DDC007FF48EAE00BF00BF2C37BD4680BC704781
:100DEC000004014080B584B000AF78607B68002BB4
:100DFC0001D101232BE17B6893F83D30DBB2002B52
:100E0C0006D17B68002283F83C207868FFF734FB1E
:100E1C007B68242283F83D207B681B681A687B68FA
:100E2C001B6822F001021A607B681B681A687B68D9
:100E3C001B6842F400421A607B681B681A687B6866
:100E4C001B6822F400421A6001F0CAFBF8607B6850
:100E5C005B68814A934207D8FB68804A934294BFEF
:100E6C0001230023DBB206E0FB687D4A934294BF6A
:100E7C0001230023DBB2002B01D00123E7E0FB6848
:100E8C00784AA2FB03239B0CBB607B681B685B68E6
:100E9C0023F03F017B681B68BA680A435A607B6881
:100EAC001B681B6A23F03F017B685B686A4A9342AC
:100EBC0002D8BB68013309E0BB684FF4967202FBA1
:100ECC0003F3694AA2FB03239B0901337A68126876
:100EDC000B4313627B681B68DB6923F44F4222F0DF
:100EEC00FF027B685B685C498B4219D8FB68591E12
:100EFC007B685B685B00B1FBF3F3591C40F6FC7339
:100F0C000B40002B0AD0FB68591E7B685B685B00AA
:100F1C00B1FBF3F30133C3F30B0351E004234FE0B4
:100F2C007B689B68002B11D1FB68581E7B68596845
:100F3C000B465B000B44B0FBF3F30133C3F30B0321
:100F4C00002B0CBF01230023DBB212E0FB68581E00
:100F5C007B6859680B469B000B4499000B44B0FB13
:100F6C00F3F30133C3F30B03002B0CBF012300235A
:100F7C00DBB2002B01D0012322E07B689B68002BA5
:100F8C000ED1FB68581E7B6859680B465B000B44FE
:100F9C00B0FBF3F30133C3F30B0343F400430FE053
:100FAC00FB68581E7B6859680B469B000B449900E4
:100FBC000B44B0FBF3F30133C3F30B0343F4404393
:100FCC00796809681343CB617B681B681B6823F045
:100FDC00C0017B68DA697B681B6A1A437B681B68F3
:100FEC000A431A607B681B689B6823F4034323F055
:100FFC00FF037A6811697A68D26811437A681268BB
:10100C000B4393607B681B68DB6823F0FF017B68F4
:10101C005A697B689B691A437B681B680A43DA60D0
:10102C007B681B681A687B681B6842F001021A60B7
:10103C007B6800221A647B68202283F83D207B6841
:10104C0000221A637B68002283F83E200023184696
:10105C001037BD4680BD00BFA08601007F841E00F6
:10106C00FF083D0083DE1B43D34D621080B588B072
:10107C0002AFF8607A601A460B467B8113463B81BF
:10108C00FFF71AFC7861FB6893F83D30DBB2202B3C
:10109C0040F0E0807B690093192301227049F868C5
:1010AC0000F09EFC0346002B01D00223D3E0FB682A
:1010BC0093F83C30012B01D10223CCE0FB680122D8
:1010CC0083F83C20FB681B681B6803F00103012BB1
:1010DC0007D0FB681B681A68FB681B6842F00102AA
:1010EC001A60FB681B681A68FB681B6822F40062B4
:1010FC001A60FB68212283F83D20FB68102283F8DC
:10110C003E20FB6800221A64FB687A685A62FB680E
:10111C003A895A85FB685B8D9AB2FB681A85FB6825
:10112C00504ADA6279897B693A6AF86800F008FB00
:10113C000346002B01D001238DE000233B61FB68AB
:10114C001B685B693B61FB681B689B693B613B6986
:10115C0066E07A69396AF86800F05CFD0346002B9A
:10116C000DD0FB681B6C042B07D1FB681B681A683D
:10117C00FB681B6842F400721A6001236BE0FB6889
:10118C005B6A1A78FB681B681A61FB685B6A5A1CFD
:10119C00FB685A62FB685B8D9BB2013B9AB2FB68A1
:1011AC005A85FB681B8D013B9AB2FB681A85FB685C
:1011BC001B685B6903F00403042B1BD1FB681B8DBC
:1011CC00002B17D0FB685B6A1A78FB681B681A61E6
:1011DC00FB685B6A5A1CFB685A62FB685B8D9BB2AE
:1011EC00013B9AB2FB685A85FB681B8D013B9AB296
:1011FC00FB681A857A69396AF86800F053FD034672
:10120C00002B0DD0FB681B6C042B07D1FB681B68F3
:10121C001A68FB681B6842F400721A6001231AE01A
:10122C00FB681B8D002B94D1FB681B681A68FB684C
:10123C001B6842F400721A60FB68202283F83D2080
:10124C00FB68002283F83E20FB68002283F83C20D8
:10125C00002300E0022318461837BD4680BD00BFAE
:10126C00020010000000FFFF80B58CB002AFF860E8
:10127C007A601A460B467B8113463B8100233B6206
:10128C00FFF71AFB7862FB6893F83D30DBB2202B3A
:10129C0040F04B827B6A0093192301227F49F86846
:1012AC0000F09EFB0346002B01D002233EE2FB68BC
:1012BC0093F83C30012B01D1022337E2FB68012269
:1012CC0083F83C20FB681B681B6803F00103012BAF
:1012DC0007D0FB681B681A68FB681B6842F00102A8
:1012EC001A60FB681B681A68FB681B6822F40062B2
:1012FC001A60FB68222283F83D20FB68102283F8D9
:10130C003E20FB6800221A64FB687A685A62FB680C
:10131C003A895A85FB685B8D9AB2FB681A85FB6823
:10132C005F4ADA6279897B6A3A6BF86800F08AFA6C
:10133C000346002B01D00123F8E1FB681B8D002B29
:10134C0013D10023FB61FB681B685B69FB61FB68C5
:10135C001B689B69FB61FB69FB681B681A68FB686F
:10136C001B6842F400721A60CCE1FB681B8D012BE8
:10137C001ED1FB681B681A68FB681B6822F480622C
:10138C001A6072B600BF0023BB61FB681B685B6907
:10139C00BB61FB681B689B69BB61BB69FB681B6815
:1013AC001A68FB681B6842F400721A6062B635E07A
:1013BC00FB681B8D022B1ED1FB681B681A68FB682F
:1013CC001B6842F400621A6072B600BF00237B6196
:1013DC00FB681B685B697B61FB681B689B697B61B5
:1013EC007B69FB681B681A68FB681B6822F48062C7
:1013FC001A6062B612E0FB681B681A68FB681B680F
:10140C0042F480621A6000233B61FB681B685B69D5
:10141C003B61FB681B689B693B613B6972E1FB6844
:10142C001B8D032B00F21F81FB681B8D012B23D11D
:10143C007A6A396BF86800F07DFC0346002B01D00A
:10144C00012373E1FB681B681A69FB685B6AD2B203
:10145C001A70FB685B6A5A1CFB685A62FB681B8D2E
:10146C00013B9AB2FB681A85FB685B8D9BB2013B12
:10147C009AB2FB685A8545E1FB681B8D022B52D151
:10148C007B6A00933B6B00220649F86800F0A8FACF
:10149C000346002B08D0012348E100BF02001000D6
:1014AC000000FFFF0400010072B600BFFB681B6860
:1014BC001A68FB681B6842F400721A60FB681B68B0
:1014CC001A69FB685B6AD2B21A70FB685B6A5A1CB9
:1014DC00FB685A62FB681B8D013B9AB2FB681A854C
:1014EC00FB685B8D9BB2013B9AB2FB685A8562B676
:1014FC0000BFFB681B681A69FB685B6AD2B21A7082
:10150C00FB685B6A5A1CFB685A62FB681B8D013BCB
:10151C009AB2FB681A85FB685B8D9BB2013B9AB251
:10152C00FB685A85EEE07B6A00933B6B0022814995
:10153C00F86800F055FA0346002B01D00123F5E0C2
:10154C00FB681B681A68FB681B6822F480621A60CF
:10155C0072B600BFFB681B681A69FB685B6AD2B283
:10156C001A70FB685B6A5A1CFB685A62FB681B8D1D
:10157C00013B9AB2FB681A85FB685B8D9BB2013B01
:10158C009AB2FB685A856C4B1B68DB086B4AA2FB52
:10159C0003231A0A13469B001344DA00D31A3B6246
:1015AC003B6A013B3B623B6A002B18D1FB68002273
:1015BC001A63FB68202283F83D20FB68002283F825
:1015CC003E20FB681B6C43F02002FB681A6462B679
:1015DC0000BFFB68002283F83C200123A6E0FB68D7
:1015EC001B685B6903F00403042BD9D1FB681B68EF
:1015FC001A68FB681B6842F400721A60FB681B686F
:10160C001A69FB685B6AD2B21A70FB685B6A5A1C77
:10161C00FB685A62FB681B8D013B9AB2FB681A850A
:10162C00FB685B8D9BB2013B9AB2FB685A8562B634
:10163C0000BFFB681B681A69FB685B6AD2B21A7040
:10164C00FB685B6A5A1CFB685A62FB681B8D013B8A
:10165C009AB2FB681A85FB685B8D9BB2013B9AB210
:10166C00FB685A854EE07A6A396BF86800F062FBC9
:10167C000346002B01D0012358E0FB681B681A6954
:10168C00FB685B6AD2B21A70FB685B6A5A1CFB6817
:10169C005A62FB681B8D013B9AB2FB681A85FB688A
:1016AC005B8D9BB2013B9AB2FB685A85FB681B6849
:1016BC005B6903F00403042B24D1FB681B8D032B03
:1016CC0007D1FB681B681A68FB681B6822F48062F0
:1016DC001A60FB681B681A69FB685B6AD2B21A70E5
:1016EC00FB685B6A5A1CFB685A62FB681B8D013BEA
:1016FC009AB2FB681A85FB685B8D9BB2013B9AB270
:10170C00FB685A85FB681B8D002B7FF488AEFB6849
:10171C00202283F83D20FB68002283F83E20FB68E2
:10172C00002283F83C20002300E0022318462837CF
:10173C00BD4680BD040001003400002089B5F814BA
:10174C0080B588B002AFF8607A603B600B467B8155
:10175C00FB68DB6A7B617B69082B06D07B69012BFC
:10176C0003D07B6913F5803F08D1FB681B681A68AE
:10177C00FB681B6842F480721A600BE0FB681B6B01
:10178C00122B07D1FB681B681A68FB681B6842F4B4
:10179C0080721A603B6800937B6800224FF0011145
:1017AC00F86800F01DF90346002B0DD0FB681B6890
:1017BC001B6803F48073B3F5807F03D1FB684FF48F
:1017CC0000721A64032335E0FB681B69B3F5804F84
:1017DC0008D17B89DBB21A46FB681B6802F0FE025B
:1017EC001A611BE07B89DB11DBB203F00603DBB271
:1017FC0063F00F03DAB2FB681B681A613B687A6806
:10180C000E49F86800F066F90346002B01D001235D
:10181C0010E07B89DAB2FB681B681A613B687A6856
:10182C000749F86800F056F90346002B01D0012354
:10183C0000E0002318461837BD4680BD08000100A3
:10184C000200010080B588B002AFF8607A603B609E
:10185C000B467B81FB68DB6A7B61FB681B681A6843
:10186C00FB681B6842F480621A607B69082B06D007
:10187C007B69012B03D07B6913F5803F08D1FB6892
:10188C001B681A68FB681B6842F480721A600BE0D4
:10189C00FB681B6B112B07D1FB681B681A68FB6874
:1018AC001B6842F480721A603B6800937B680022CC
:1018BC004FF00111F86800F093F80346002B0DD09F
:1018CC00FB681B681B6803F48073B3F5807F03D13E
:1018DC00FB684FF400721A64032379E0FB681B6900
:1018EC00B3F5804F08D17B89DBB243F00103DAB248
:1018FC00FB681B681A615FE07B89DB11DBB203F0CC
:10190C000603DBB263F00F03DAB2FB681B681A61E3
:10191C003B687A683049F86800F0DCF80346002B25
:10192C0001D0012354E07B89DAB2FB681B681A6191
:10193C003B687A682949F86800F0CCF80346002B1C
:10194C0001D0012344E000233B61FB681B685B6909
:10195C003B61FB681B689B693B613B69FB681B68CF
:10196C001A68FB681B6842F480721A603B6800932B
:10197C007B6800224FF00111F86800F031F8034643
:10198C00002B0DD0FB681B681B6803F48073B3F548
:10199C00807F03D1FB684FF400721A64032317E0B5
:1019AC007B89DB11DBB203F00603DBB263F00E03C1
:1019BC00DAB2FB681B681A613B687A680749F868F9
:1019CC0000F088F80346002B01D0012300E000232F
:1019DC0018461837BD4680BD080001000200010002
:1019EC0080B584B000AFF860B9603B601346FB7102
:1019FC0048E03B68B3F1FF3F44D0FEF75DFF024681
:101A0C00BB69D31A3A689A4202D33B68002B39D18E
:101A1C00BB681B0CDBB2012B0DD1FB681B685B692F
:101A2C00DA43BB6813409BB2002B0CBF012300238D
:101A3C00DBB21A460CE0FB681B689B69DA43BB6897
:101A4C0013409BB2002B0CBF01230023DBB21A46C0
:101A5C00FB799A4216D1FB6800221A63FB6820229C
:101A6C0083F83D20FB68002283F83E20FB681B6C4A
:101A7C0043F02002FB681A64FB68002283F83C20C8
:101A8C00012323E0BB681B0CDBB2012B0DD1FB68DF
:101A9C001B685B69DA43BB6813409BB2002B0CBF1D
:101AAC0001230023DBB21A460CE0FB681B689B6920
:101ABC00DA43BB6813409BB2002B0CBF01230023FD
:101ACC00DBB21A46FB799A4293D0002318461037A2
:101ADC00BD4680BD80B584B000AFF860B9607A6057
:101AEC003B6071E0FB681B685B6903F48063B3F5D2
:101AFC00806F23D1FB681B681A68FB681B6842F473
:101B0C0000721A60FB681B686FF480625A61FB6894
:101B1C0000221A63FB68202283F83D20FB68002218
:101B2C0083F83E20FB681B6C43F00402FB681A64CC
:101B3C00FB68002283F83C20012367E07B68B3F14B
:101B4C00FF3F41D0FEF7B8FE02463B68D31A7A68D5
:101B5C009A4202D37B68002B36D1BB681B0CDBB2DC
:101B6C00012B0CD1FB681B685B69DA43BB68134023
:101B7C009BB2002B14BF01230023DBB20BE0FB68EC
:101B8C001B689B69DA43BB6813409BB2002B14BFE4
:101B9C0001230023DBB2002B16D0FB6800221A6352
:101BAC00FB68202283F83D20FB68002283F83E204E
:101BBC00FB681B6C43F02002FB681A64FB68002274
:101BCC0083F83C20012321E0BB681B0CDBB2012B0A
:101BDC000CD1FB681B685B69DA43BB6813409BB292
:101BEC00002B14BF01230023DBB20BE0FB681B6846
:101BFC009B69DA43BB6813409BB2002B14BF0123D3
:101C0C000023DBB2002B7FF46DAF00231846103796
:101C1C00BD4680BD80B584B000AFF860B9607A6015
:101C2C0034E0F86800F0E3F80346002B01D0012300
:101C3C0034E0BB68B3F1FF3F28D0FEF73DFE02460F
:101C4C007B68D31ABA689A4202D3BB68002B1DD1A9
:101C5C00FB681B685B6903F08003802B16D0FB6864
:101C6C0000221A63FB68202283F83D20FB680022C7
:101C7C0083F83E20FB681B6C43F02002FB681A645F
:101C8C00FB68002283F83C20012307E0FB681B68FB
:101C9C005B6903F08003802BC3D1002318461037F7
:101CAC00BD4680BD80B584B000AFF860B9607A6085
:101CBC0034E0F86800F09BF80346002B01D00123B8
:101CCC0034E0BB68B3F1FF3F28D0FEF7F5FD0246C8
:101CDC007B68D31ABA689A4202D3BB68002B1DD119
:101CEC00FB681B685B6903F00403042B16D0FB68CC
:101CFC0000221A63FB68202283F83D20FB68002237
:101D0C0083F83E20FB681B6C43F02002FB681A64CE
:101D1C00FB68002283F83C20012307E0FB681B686A
:101D2C005B6903F00403042BC3D10023184610375E
:101D3C00BD4680BD80B584B000AFF860B9607A60F4
:101D4C0049E0FB681B685B6903F01003102B19D189
:101D5C00FB681B686FF010025A61FB6800221A6363
:101D6C00FB68202283F83D20FB68002283F83E208C
:101D7C00FB681A6CFB681A64FB68002283F83C2031
:101D8C00012330E0FEF798FD02467B68D31ABA684F
:101D9C009A4202D3BB68002B1DD1FB681B685B69A0
:101DAC0003F04003402B16D0FB6800221A63FB683B
:101DBC00202283F83D20FB68002283F83E20FB683C
:101DCC001B6C43F02002FB681A64FB68002283F84A
:101DDC003C20012307E0FB681B685B6903F04003B0
:101DEC00402BAED1002318461037BD4680BD80B4C1
:101DFC0083B000AF78607B681B685B6903F4806319
:101E0C00B3F5806F1BD17B681B686FF480625A61DD
:101E1C007B6800221A637B68202283F83D207B6854
:101E2C00002283F83E207B681B6C43F004027B6825
:101E3C001A647B68002283F83C20012300E0002315
:101E4C0018460C37BD4680BC7047000080B586B084
:101E5C0000AF78607B68002B01D1012372E27B68B4
:101E6C001B6803F00103002B00F08780924B5B682A
:101E7C0003F00C03042B0CD08F4B5B6803F00C03AA
:101E8C00082B12D18C4B5B6803F48033B3F5803F85
:101E9C000BD1894B1B6803F40033002B6CD07B688F
:101EAC005B68002B68D101234CE27B685B68B3F55F
:101EBC00803F06D1804B1B687F4A43F4803313600C
:101ECC002EE07B685B68002B0CD17B4B1B687A4A3D
:101EDC0023F480331360784B1B68774A23F48023F8
:101EEC0013601DE07B685B68B3F5A02F0CD1724BBF
:101EFC001B68714A43F4802313606F4B1B686E4A56
:101F0C0043F4803313600BE06B4B1B686A4A23F479
:101F1C0080331360684B1B68674A23F4802313607B
:101F2C007B685B68002B13D0FEF7C6FC386108E0B9
:101F3C00FEF7C2FC02463B69D31A642B01D903237A
:101F4C0000E25D4B1B6803F40033002BF0D014E06F
:101F5C00FEF7B2FC386108E0FEF7AEFC02463B69C6
:101F6C00D31A642B01D90323ECE1534B1B6803F404
:101F7C000033002BF0D100E000BF7B681B6803F03E
:101F8C000203002B63D04C4B5B6803F00C03002B5B
:101F9C000BD0494B5B6803F00C03082B1CD1464B50
:101FAC005B6803F48033002B16D1434B1B6803F0A2
:101FBC000203002B05D07B681B69012B01D0012388
:101FCC00C0E13D4B1B6823F0F8027B685B69DB00CA
:101FDC00394913430B603AE07B681B69002B20D016
:101FEC00364B01221A60FEF767FC386108E0FEF7F9
:101FFC0063FC02463B69D31A022B01D90323A1E1EE
:10200C002D4B1B6803F00203002BF0D02A4B1B68EE
:10201C0023F0F8027B685B69DB00274913430B60F4
:10202C0015E0264B00221A60FEF746FC386108E0EA
:10203C00FEF742FC02463B69D31A022B01D903235B
:10204C0080E11D4B1B6803F00203002BF0D17B6871
:10205C001B6803F00803002B3AD07B689B69002BAC
:10206C0019D0174B01221A60FEF726FC386108E0E4
:10207C00FEF722FC02463B69D31A022B01D903233B
:10208C0060E10D4B5B6A03F00203002BF0D00120E2
:10209C0000F0CEFA1CE00A4B00221A60FEF70CFC92
:1020AC0038610FE0FEF708FC02463B69D31A022B9D
:1020BC0008D9032346E100BF001002400000424251
:1020CC0080044242924B5B6A03F00203002BE9D17D
:1020DC007B681B6803F00403002B00F0A680002330
:1020EC00FB758B4BDB6903F08053002B0DD1884BB8
:1020FC00DB69874A43F08053D361854BDB6903F07E
:10210C008053BB60BB680123FB75824B1B6803F4D7
:10211C008073002B18D17F4B1B687E4A43F480736D
:10212C001360FEF7C9FB386108E0FEF7C5FB0246F9
:10213C003B69D31A642B01D9032303E1754B1B684C
:10214C0003F48073002BF0D07B68DB68012B06D185
:10215C006F4B1B6A6E4A43F0010313622DE07B68E0
:10216C00DB68002B0CD16A4B1B6A694A23F0010314
:10217C001362674B1B6A664A23F0040313621CE06C
:10218C007B68DB68052B0CD1614B1B6A604A43F002
:10219C00040313625E4B1B6A5D4A43F00103136236
:1021AC000BE05B4B1B6A5A4A23F001031362584B3A
:1021BC001B6A574A23F0040313627B68DB68002B0D
:1021CC0015D0FEF779FB38610AE0FEF775FB024685
:1021DC003B69D31A41F28832934201D90323B1E00F
:1021EC004B4B1B6A03F00203002BEED014E0FEF7FE
:1021FC0063FB38610AE0FEF75FFB02463B69D31ACA
:10220C0041F28832934201D903239BE0404B1B6A75
:10221C0003F00203002BEED1FB7D012B05D13C4BCF
:10222C00DB693B4A23F08053D3617B68DB69002B6D
:10223C0000F08780364B5B6803F00C03082B61D0F1
:10224C007B68DB69022B46D1334B00221A60FEF708
:10225C0033FB386108E0FEF72FFB02463B69D31ACB
:10226C00022B01D903236DE0294B1B6803F000738B
:10227C00002BF0D17B681B6AB3F5803F08D1244B4F
:10228C005B6823F400327B689B68214913434B60E5
:10229C001F4B5B6823F474127B68196A7B685B6A5A
:1022AC000B431B4913434B601B4B01221A60FEF777
:1022BC0003FB386108E0FEF7FFFA02463B69D31ACC
:1022CC00022B01D903233DE0114B1B6803F0007373
:1022DC00002BF0D035E0104B00221A60FEF7ECFA20
:1022EC00386108E0FEF7E8FA02463B69D31A022B84
:1022FC0001D9032326E0064B1B6803F00073002B67
:10230C00F0D11EE07B68DB69012B07D1012319E0BA
:10231C000010024000700040600042420B4B5B68B2
:10232C00FB60FB6803F480327B681B6A9A4206D11F
:10233C00FB6803F470127B685B6A9A4201D001233C
:10234C0000E0002318461837BD4680BD001002403F
:10235C0080B584B000AF786039607B68002B01D108
:10236C000123D0E06A4B1B6803F007033A689A42DA
:10237C0010D9674B1B6823F0070265493B68134370
:10238C000B60634B1B6803F007033A689A4201D059
:10239C000123B8E07B681B6803F00203002B20D0FC
:1023AC007B681B6803F00403002B05D0594B5B685A
:1023BC00584A43F4E06353607B681B6803F00803DE
:1023CC00002B05D0534B5B68524A43F46053536067
:1023DC00504B5B6823F0F0027B689B684D491343BC
:1023EC004B607B681B6803F00103002B40D07B68BB
:1023FC005B68012B07D1474B1B6803F40033002BA0
:10240C0015D101237FE07B685B68022B07D1414B20
:10241C001B6803F00073002B09D1012373E03D4BC3
:10242C001B6803F00203002B01D101236BE0394B35
:10243C005B6823F003027B685B68364913434B608F
:10244C00FEF73AFAF8600AE0FEF736FA0246FB6845
:10245C00D31A41F28832934201D9032353E02D4B16
:10246C005B6803F00C027B685B689B009A42EBD1C3
:10247C00274B1B6803F007033A689A4210D2244B8F
:10248C001B6823F0070222493B6813430B60204B67
:10249C001B6803F007033A689A4201D0012332E02B
:1024AC007B681B6803F00403002B08D0194B5B6896
:1024BC0023F4E0627B68DB68164913434B607B684E
:1024CC001B6803F00803002B09D0124B5B6823F444
:1024DC0060527B681B69DB000E4913434B6000F0B4
:1024EC0021F802460B4B5B681B0903F00F030A49EA
:1024FC00CB5C22FA03F3094A1360094B1B6818469C
:10250C00FEF798F9002318461037BD4680BD00BF72
:10251C0000200240001002409035000834000020DA
:10252C003800002080B487B000AF0023FB6000238C
:10253C00BB6000237B6100237B6000233B611E4B4F
:10254C005B68FB60FB6803F00C03042B02D0082BC8
:10255C0003D027E0194B3B6127E0FB689B0C03F091
:10256C000F03174AD35C7B60FB6803F48033002BAA
:10257C0010D0114B5B685B0C03F00103114AD35C68
:10258C00BB607B680D4A03FB02F2BB68B2FBF3F342
:10259C007B6104E07B680C4A02FB03F37B617B6983
:1025AC003B6102E0054B3B6100BF3B6918461C37A1
:1025BC00BD4680BC704700BF0010024000127A007C
:1025CC00A8350008B835000800093D0080B400AFFC
:1025DC00024B1B681846BD4680BC70473400002077
:1025EC0080B500AFFFF7F2FF0246054B5B681B0A94
:1025FC0003F007030349CB5C22FA03F3184680BDB2
:10260C0000100240A035000880B500AFFFF7DEFFD8
:10261C000246054B5B68DB0A03F007030349CB5CFE
:10262C0022FA03F3184680BD00100240A0350008C2
:10263C0080B485B000AF78600A4B1B680A4AA2FBD5
:10264C0003235B0A7A6802FB03F3FB6000BFFB68A1
:10265C005A1EFA60002BF9D100BF00BF1437BD46DB
:10266C0080BC704734000020D34D621080B582B01E
:10267C0000AF78607B68002B01D101234DE07B68B3
:10268C0093F84130DBB2002B11D17B68002283F828
:10269C004020786800F026F97B681B6F002B02D174
:1026AC007B68204A1A677B681B6F786898477B6841
:1026BC00242283F841207B681B68DA687B681B68DE
:1026CC0022F40052DA60786800F0FEF97B681B682F
:1026DC001A697B681B6822F490421A617B681B683C
:1026EC005A697B681B6822F02A025A617B681B6856
:1026FC00DA687B681B6842F40052DA607B6800225F
:10270C005A647B68202283F841207B68202283F85E
:10271C0042207B6800225A63002318460837BD46C6
:10272C0080BD00BF0105000880B58AB002AFF8601B
:10273C00B9603B601346FB8000237B61FB6893F818
:10274C004130DBB2202B75D1BB68002B02D0FB884B
:10275C00002B01D101236EE0FB6800225A64FB6858
:10276C00212283F84120FEF7A7F87861FB68FA88EC
:10277C009A84FB68FA88DA84FB689B68B3F5805FFF
:10278C0008D1FB681B69002B04D10023FB61BB68DB
:10279C00BB6103E0BB68FB610023BB612EE03B68BF
:1027AC0000937B6900228021F86800F0D1F8034681
:1027BC00002B05D0FB68202283F8412003233AE04C
:1027CC00FB69002B0BD1BB691B881A46FB681B6885
:1027DC00C2F308025A60BB690233BB6107E0FB69B4
:1027EC001A78FB681B685A60FB690133FB61FB6854
:1027FC00DB8C9BB2013B9AB2FB68DA84FB68DB8C06
:10280C009BB2002BCBD13B6800937B69002240210B
:10281C00F86800F09DF80346002B05D0FB682022D9
:10282C0083F84120032306E0FB68202283F8412033
:10283C00002300E0022318462037BD4680BD80B43B
:10284C0083B000AF786000BF0C37BD4680BC7047CA
:10285C0080B483B000AF786000BF0C37BD4680BC3D
:10286C00704780B483B000AF786000BF0C37BD46B2
:10287C0080BC704780B483B000AF786000BF0C3769
:10288C00BD4680BC704780B483B000AF786000BF99
:10289C000C37BD4680BC704780B483B000AF786005
:1028AC0000BF0C37BD4680BC704780B483B000AF0E
:1028BC00786000BF0C37BD4680BC704780B483B0D5
:1028CC0000AF786000BF0C37BD4680BC704780B449
:1028DC0083B000AF78600B467B8000BF0C37BD46E1
:1028EC0080BC704780B483B000AF78607B680F4ABF
:1028FC009A647B680E4ADA647B680E4A1A657B68B8
:10290C000D4A5A657B680D4A9A657B680C4ADA65F4
:10291C007B680C4A1A667B680B4A5A667B680B4AC2
:10292C00DA6600BF0C37BD4680BC70475D280008D6
:10293C004B280008812800086F28000893280008FD
:10294C00A5280008B7280008C9280008DB280008BB
:10295C0080B586B000AFF860B9603B601346FB7180
:10296C003BE03B6AB3F1FF3F37D0FDF7A5FF0246D2
:10297C003B68D31A3A6A9A4202D33B6A002B01D1C4
:10298C0003233AE0FB681B68DB6803F00403002BAD
:10299C0023D0BB68802B20D0BB68402B1DD0FB689C
:1029AC001B681B6803F00803082B16D100237B61FE
:1029BC00FB681B681B687B61FB681B685B687B6141
:1029CC007B69F86800F01DF8FB6808225A64FB6804
:1029DC00002283F8402001230FE0FB681B681A6873
:1029EC00BB681340BA689A420CBF01230023DBB2C8
:1029FC001A46FB799A42B4D0002318461837BD46C4
:102A0C0080BD80B495B000AF78607B681B680C33D8
:102A1C007B637B6B53E8003F3B633B6B23F490730E
:102A2C00FB647B681B680C33FA6C3A64FB63F96BD0
:102A3C003A6C41E80023BB63BB6B002BE5D17B6890
:102A4C001B6814333B623B6A53E8003FFB61FB6934
:102A5C0023F00103BB647B681B681433BA6CFA6205
:102A6C00BB62B96AFA6A41E800237B627B6A002B7D
:102A7C00E5D17B681B6B012B19D17B681B680C3370
:102A8C00FB60FB6853E8003FBB60BB6823F010039E
:102A9C007B647B681B680C337A6CBA617B617969E7
:102AAC00BA6941E800233B613B69002BE5D17B68A7
:102ABC00202283F842207B6800221A6300BF54371F
:102ACC00BD4680BC7047000080B584B000AF786014
:102ADC007B681B681B6923F440517B68DA687B6850
:102AEC001B680A431A617B689A687B681B691A43E6
:102AFC007B685B691343BB607B681B68DB6823F4F2
:102B0C00B05323F00C037A681268B9680B43D36096
:102B1C007B681B685B6923F440717B689A697B68EE
:102B2C001B680A435A617B681B682C4A934203D189
:102B3C00FFF76AFDF86002E0FFF752FDF860FA68F3
:102B4C0013469B0013449A001A447B685B689B00F5
:102B5C00B2FBF3F3224AA2FB03235B091901FA68C7
:102B6C0013469B0013449A001A447B685B689B00D5
:102B7C00B2FBF3F21A4BA3FB02035B09642000FBCC
:102B8C0003F3D31A1B013233154AA2FB03235B094F
:102B9C0003F0F0031944FA6813469B0013449A009F
:102BAC001A447B685B689B00B2FBF3F20C4BA3FBF3
:102BBC0002035B09642000FB03F3D31A1B013233BD
:102BCC00074AA2FB03235B0903F00F027B681B6817
:102BDC000A449A6000BF1037BD4680BD00380140E2
:102BEC001F85EB51014B1868704700BF4000002057
:102BFC0070B500260C4D0D4C641BA410A64209D1D7
:102C0C0000F09CFC00260A4D0A4C641BA410A64242
:102C1C0005D170BD55F8043B98470136EEE755F8E1
:102C2C00043B98470136F2E7F0350008F035000810
:102C3C00F0350008F435000803460244934200D1F5
:102C4C00704703F8011BF9E70EB46FF0004100B5B3
:102C5C009CB01DAB0290069007910491084809495D
:102C6C0053F8042B0591006802A9019300F068F851
:102C7C000022029B1A701CB05DF804EB03B0704785
:102C8C00400000200802FFFF2DE9F0478E688246C5
:102C9C009E420C4690461F4638D88A8912F4906F93
:102CAC0032D0256809690133A5EB010965694B44EC
:102CBC0005EB450505EBD5756D109D4238BF1D46DE
:102CCC00530531D5294600F06FFB064650B90C234D
:102CDC004FF0FF30CAF80030A38943F04003A381C2
:102CEC00BDE8F0874A46216900F0CEFAA38923F4A7
:102CFC00906343F08003A38126614E4426603E46D8
:102D0C006561A5EB0905A560BE4200D93E46324679
:102D1C004146206800F0C6FAA36800209B1BA36004
:102D2C00236833442360DBE72A4600F0B1FB0646F8
:102D3C000028E1D15046216900F0CEFAC7E7000027
:102D4C002DE9F04F98468B8907461B060D46144615
:102D5C009DB00ED50B6963B9402100F025FB2860AE
:102D6C00286120B90C233B604FF0FF30D1E04023A9
:102D7C006B610023099320238DF8293030234FF009
:102D8C000109CDF80C80DFF8A4818DF82A30234698
:102D9C009A4613F8012B0AB1252AF9D1BAEB040B88
:102DAC000BD05B46224629463846FFF76DFF0130B3
:102DBC0000F0AA80099A5A4409929AF80030002B24
:102DCC0000F0A28000234FF0FF32CDE905230AF179
:102DDC00010A049307938DF853301A935446052235
:102DEC0014F8011B514800F041FA049AD8B9D006E6
:102DFC0044BF20238DF85330110744BF2B238DF88B
:102E0C0053309AF800302A2B15D0544600204FF03E
:102E1C000A0C079A214611F8013B303B092B4ED97D
:102E2C00B0B1079214E0A0EB080309FA03F31343C3
:102E3C00A2460493D2E7039B191D1B680391002B38
:102E4C00BBBF5B4242F0020207930793B8BF0492E8
:102E5C0023782E2B0CD163782A2B35D1039B02348B
:102E6C001A1D1B680392002BB8BF4FF0FF3305935C
:102E7C00DFF8BCA003225046217800F0F7F940B1EE
:102E8C004023A0EB0A0003FA00F0049B0134034337
:102E9C00049314F8011B062226488DF8281000F024
:102EAC00E5F9002838D0244B1BBB039B073323F0D8
:102EBC00070308330393099B3344099367E70C46D4
:102ECC0001200CFB0232A5E700234FF00A0C194637
:102EDC0001340593204610F8012B303A092A03D906
:102EEC00002BC5D00591C3E7044601230CFB01213F
:102EFC00F0E703AB00932A463846104B04A9AFF316
:102F0C000080421C0646D6D1AB895B063FF52CAF40
:102F1C0009981DB0BDE8F08F03AB00932A463846E4
:102F2C00064B04A900F07CF8EBE700BFBA350008AB
:102F3C00C0350008C435000800000000952C0008BE
:102F4C002DE9F047164699468A680B690746934265
:102F5C00B8BF1346336091F843200C46DDF820804F
:102F6C000AB1013333602368990642BF33680233D8
:102F7C003360256815F0060506D104F1190AE368DB
:102F8C0032689B1AAB4228DC94F84320131E22684B
:102F9C0018BF012392062DD44946384604F143024A
:102FAC00C047013020D02368E56803F00603042BEA
:102FBC0018BF002532684FF00006A36808BFAD1A91
:102FCC00226908BF25EAE5759342C4BF9B1AED1828
:102FDC001A34B5421AD1002008E001235246494662
:102FEC003846C047013003D14FF0FF30BDE8F087C1
:102FFC000135C4E73020E11881F843005A1C94F8DD
:10300C0045102244023382F84310C5E701232246BF
:10301C0049463846C0470130E6D00136D9E70000B2
:10302C002DE9FF470F7E9146782F80460C469A4635
:10303C000C9D01F1430207D8622F0AD8002F00F033
:10304C00D980582F00F0A48004F1420584F8427016
:10305C003AE0A7F16303152BF6D801A151F823F040
:10306C00C5300008D930000855300008553000082C
:10307C005530000855300008D9300008553000088C
:10308C00553000085530000855300008E73100086D
:10309C0009310008C93100085530000855300008C6
:1030AC000932000855300008093100085530000875
:1030BC0055300008D13100082B681A1D1B682A6096
:1030CC0004F1420584F842300123A4E02068296809
:1030DC00060601F104030AD50E682B60002E03DAF4
:1030EC002D23764284F843300A235E4819E00E689B
:1030FC0010F0400F2B6018BF36B2EFE72B6820683A
:10310C00191D2960010601D51E6802E04606FBD593
:10311C001E886F2F0CBF08230A235248002184F805
:10312C0043106568002DA8BF2168A560A4BF21F0DD
:10313C00040121600EB9002D4DD01546B6FBF3F1FC
:10314C0003FB1167C75D05F8017D3746BB420E4690
:10315C00F4D9082B0BD12368DE0708D523696168E5
:10316C009942DEBF302305F8013C05F1FF35521BB7
:10317C0022614B4621464046CDF800A003AAFFF73A
:10318C00DFFE01304CD14FF0FF3004B0BDE8F087CA
:10319C00344881F845702968236851F8046B29601C
:1031AC001D0614D5DF0744BF43F0200323601EB96E
:1031BC00236823F0200323601023AFE7236843F038
:1031CC00200323607823284884F84530E3E7590628
:1031DC0048BFB6B2E6E71546BBE72B682668181D54
:1031EC006169286035061B6801D5196002E070061C
:1031FC00FBD51980002315462361BAE72B68002103
:10320C001A1D2A601D686268284600F02FF808B164
:10321C00401B606063682361002384F84330A8E797
:10322C002A46494640462369D0470130ABD0236833
:10323C009B0713D4E068039B9842B8BF1846A4E7D9
:10324C000123324649464046D04701309BD00135D8
:10325C00E36803995B1AAB42F2DCEBE7002504F15F
:10326C001906F5E7CB350008DC350008034610B528
:10327C00C9B202449342184601D1002003E00478FD
:10328C0001338C42F6D110BD0A44914200F1FF3358
:10329C0000D1704710B511F8014B914203F8014F62
:1032AC00F9D110BD884210B501EB020402D9844259
:1032BC00234607D8431EA14208D011F8012B03F86E
:1032CC00012FF8E7014602448A4200D110BD13F8E1
:1032DC00014D02F8014DF7E738B50546002940D0FD
:1032EC0051F8043C0C1F002BB8BFE41800F010F987
:1032FC001C4A136833B9636014602846BDE8384033
:10330C0000F00CB9A34208D9206821188B4201BFE8
:10331C0019685B6809182160EDE71A465B680BB108
:10332C00A342FAD911685018A0420BD1206801446D
:10333C00501883421160E0D118685B680144116039
:10334C005360DAE702D90C232B60D6E720682118EA
:10335C008B4201BF19685B68091821606360546077
:10336C00CBE738BD9401002070B50E4E0C46316889
:10337C00054611B900F0BCF830602146284600F033
:10338C00B7F8431C0AD0C41C24F00304A04207D095
:10339C00211A284600F0ACF8013001D14FF0FF346F
:1033AC00204670BD980100202DE9F041CD1C25F080
:1033BC00030508350C2D38BF0C25002D074601DB05
:1033CC00A94205D90C2300263B603046BDE8F081AC
:1033DC002E4E00F09DF833681C4634BB2946384607
:1033EC00FFF7C2FF431C04464DD134682646002E1D
:1033FC0040D123683146384604EB030800F078F8D6
:10340C0080453AD1216803356D1A25F0030508353E
:10341C000C2D38BF0C2538462946FFF7A5FF013087
:10342C002BD023682B4423600EE02268521B1ED441
:10343C000B2A16D96119A342256018BF596063681D
:10344C0008BF316062514B60384604F10B0600F046
:10345C0065F826F00706231DF21AB6D09B1BA35065
:10346C00B3E76268A3420CBF32605A60ECE72346B4
:10347C006468B2E734467668B9E70C2338463B609B
:10348C0000F04CF8A1E72560DEE700BF94010020B6
:10349C002DE9F041804614460E4621B91146BDE88F
:1034AC00F041FFF781BF2AB9FFF716FF25462846E2
:1034BC00BDE8F08100F038F88442074602D8B4EB3E
:1034CC00500F12D821464046FFF76EFF05460028E4
:1034DC00EDD0BC422246314628BF3A46FFF7D4FE17
:1034EC0031464046FFF7F8FEE1E73546DFE70000DE
:1034FC0038B50023054D044608462B60FDF76EF8E1
:10350C00431C02D12B6803B1236038BD9C01002001
:10351C00014800F011B800BFA0010020014800F0E4
:10352C000CB800BFA001002051F8043C181F002B60
:10353C00BCBF0B58C018704770477047F8B500BF38
:10354C00F8BC08BC9E467047F8B500BFF8BC08BC78
:04355C009E467047D0
:103560004F4B00004E4F4B00436F6D706173733AC9
:103570002025732C20583A202564202C20593A20ED
:103580002564202C205A3A2025640A0D20000000D2
:103590000000000000000000010203040607080903
:1035A00000000000010203040203040506070809E5
:1035B0000A0B0C0D0E0F10100102232D302B2000D2
:1035C000686C4C00656667454647003031323334DD
:1035D000353637383941424344454600303132337D
:1035E000343536373839616263646566000000003F
:0435F000310100089D
:0435F4000D010008BD
:1035F80000000000000000000000000000000000C3
:1036080000000000000000000000000000000000B2
:10361800000000000000000000000000A1010008F8
:103628005D01000800127A0010000000010000008F
:10363800440000200000000000000000000000001E
:103648000000000000000000000000000000000072
:103658000000000000000000000000000000000062
:103668000000000000000000000000000000000052
:103678000000000000000000000000000000000042
:103688000000000000000000000000000000000032
:04369800000000002E
:040000050800066188
:00000001FF
